:020000040800F2
:100000000080022019AD0008779600087996000854
:100010007B9600087D9600087F960008000000008F
:10002000000000000000000000000000512800084F
:100030008196000800000000F1280008750E0008F5
:1000400069AD000869AD000869AD000869AD000838
:1000500069AD000869AD000869AD00088396000825
:1000600069AD000869AD000869AD000869AD000818
:1000700069AD000869AD000869AD000869AD000808
:100080008D9600089D96000869AD000869AD0008CE
:1000900069AD000869AD000869AD0008AD960008BB
:1000A00069AD0008B996000869AD000869AD00089F
:1000B000DD960008ED96000800000000FD9600089F
:1000C0000D97000869AD000869AD000869AD00082A
:1000D00069AD000869AD00081D97000869AD00080A
:1000E0002D97000869AD0008000000000000000026
:1000F0000000000000000000000000000000000000
:100100000000000069AD00080000000069AD0008B3
:1001100069AD00080000000069AD000800000000A3
:1001200069AD000869AD000869AD000869AD000857
:1001300069AD000869AD000869AD00080000000065
:1001400069AD000869AD000869AD000869AD000837
:10015000399700084997000869AD000869AD0008A3
:1001600069AD000869AD000869AD00080000000035
:100170000000000069AD0008000000000000000061
:1001800069AD000869AD000869AD000869AD0008F7
:0801900069AD00080000000049
:1001A00010F8012B11F8013B012A28BF9A42F7D021
:1001B000D01A70470000000000000000000000009E
:1001C00001F0FF01102A2BDB10F0070F08D010F808
:1001D000013B013A8B422DD010F0070F42B3F6D10C
:1001E000F0B441EA012141EA014122F007047FF025
:1001F00000070023F0E80256083C85EA010586EA7C
:10020000010685FA47F5A3FA87F586FA47F6A5FAB7
:1002100087F68EB9EED1F0BC01F0FF0102F00702C3
:1002200032B110F8013B013A83EA010313B1F8D16E
:100230000020704701387047002D06BF354603384F
:10024000073815F0010F07D1013015F4807F02BF88
:10025000013015F4C03F0130F0BC0138704700BFD9
:10026000034613F8012B002AFBD1181A01387047F6
:1002700081F0004102E000BF83F0004330B54FEA57
:1002800041044FEA430594EA050F08BF90EA020FC4
:100290001FBF54EA000C55EA020C7FEA645C7FEA57
:1002A000655C00F0E2804FEA5454D4EB5555B8BF7A
:1002B0006D420CDD2C4480EA020281EA030382EAEB
:1002C000000083EA010180EA020281EA0303362D7D
:1002D00088BF30BD11F0004F4FEA01314FF4801C50
:1002E0004CEA113102D0404261EB410113F0004F62
:1002F0004FEA03334CEA133302D0524263EB430319
:1003000094EA050F00F0A780A4F10104D5F1200EB6
:100310000DDB02FA0EFC22FA05F2801841F1000111
:1003200003FA0EF2801843FA05F359410EE0A5F1E5
:1003300020050EF1200E012A03FA0EFC28BF4CF016
:10034000020C43FA05F3C01851EBE37101F00045CC
:1003500007D54FF0000EDCF1000C7EEB00006EEBD9
:100360000101B1F5801F1BD3B1F5001F0CD3490863
:100370005FEA30004FEA3C0C04F101044FEA4452BA
:1003800012F5800F80F09A80BCF1004F08BF5FEA41
:10039000500C50F1000041EB045141EA050130BD21
:1003A0005FEA4C0C404141EB0101013C28BFB1F533
:1003B000801FE9D291F0000F04BF01460020B1FA7E
:1003C00081F308BF2033A3F10B03B3F120020CDA51
:1003D0000C3208DD02F1140CC2F10C0201FA0CF02F
:1003E00021FA02F10CE002F11402D8BFC2F1200C94
:1003F00001FA02F120FA0CFCDCBF41EA0C0190404A
:10040000E41AA2BF01EB0451294330BD6FEA040492
:100410001F3C1CDA0C340EDC04F11404C4F120027D
:1004200020FA04F001FA02F340EA030021FA04F38F
:1004300045EA030130BDC4F10C04C4F1200220FAE6
:1004400002F001FA04F340EA0300294630BD21FA24
:1004500004F0294630BD94F0000F83F4801306BFEA
:1004600081F480110134013D4EE77FEA645C18BFDE
:100470007FEA655C29D094EA050F08BF90EA020F75
:1004800005D054EA000C04BF1946104630BD91EA6D
:10049000030F1EBF0021002030BD5FEA545C05D170
:1004A0004000494128BF41F0004130BD14F58004AF
:1004B0003CBF01F5801130BD01F0004545F0FE4123
:1004C00041F470014FF0000030BD7FEA645C1ABF58
:1004D000194610467FEA655C1CBF0B46024650EA8F
:1004E000013406BF52EA033591EA030F41F40021BB
:1004F00030BD00BF90F0000F04BF0021704730B541
:100500004FF4806404F132044FF000054FF0000115
:1005100050E700BF90F0000F04BF0021704730B5D6
:100520004FF4806404F1320410F0004548BF4042AB
:100530004FF000013EE700BF42004FEAE2014FEA00
:1005400031014FEA02701FBF12F07F4393F07F4FDB
:1005500081F06051704732F07F4208BF704793F0DE
:100560007F4F04BF41F40021704730B54FF46074F1
:1005700001F0004521F000411CE700BF50EA0102F4
:1005800008BF704730B54FF000050AE050EA01029D
:1005900008BF704730B511F0004502D5404261EB0D
:1005A00041014FF4806404F132045FEA915C3FF44E
:1005B000D8AE4FF003025FEADC0C18BF03325FEAEB
:1005C000DC0C18BF033202EBDC02C2F1200300FA9C
:1005D00003FC20FA02F001FA03FE40EA0E0021FAC1
:1005E00002F11444BDE600BF70B54FF0FF0C4CF4AF
:1005F000E06C1CEA11541DBF1CEA135594EA0C0F61
:1006000095EA0C0F00F0DEF82C4481EA030621EA9B
:100610004C5123EA4C5350EA013518BF52EA0335D6
:1006200041F4801143F4801338D0A0FB02CE4FF088
:100630000005E1FB02E506F00042E0FB03E54FF0B8
:100640000006E1FB03569CF0000F18BF4EF0010EB0
:10065000A4F1FF04B6F5007F64F5407404D25FEAAC
:100660004E0E6D4146EB060642EAC62141EA55515F
:100670004FEAC52040EA5E504FEACE2EB4F1FD0CA1
:1006800088BFBCF5E06F1ED8BEF1004F08BF5FEA1F
:10069000500E50F1000041EB045170BD06F00046D1
:1006A00046EA010140EA020081EA0301B4EB5C047E
:1006B000C2BFD4EB0C0541EA045170BD41F4801176
:1006C0004FF0000E013C00F3AB8014F1360FDEBF9B
:1006D000002001F0004170BDC4F10004203C35DA77
:1006E0000C341BDC04F11404C4F1200500FA05F3FA
:1006F00020FA04F001FA05F240EA020001F000429B
:1007000021F0004110EBD37021FA04F642EB060110
:100710005EEA430E08BF20EAD37070BDC4F10C043A
:10072000C4F1200500FA04F320FA05F001FA04F2FE
:1007300040EA020001F0004110EBD37041F10001EA
:100740005EEA430E08BF20EAD37070BDC4F12005F5
:1007500000FA05F24EEA020E20FA04F301FA05F25D
:1007600043EA020321FA04F001F0004121FA04F205
:1007700020EA020000EBD3705EEA430E08BF20EAD5
:10078000D37070BD94F0000F0FD101F0004640000F
:1007900041EB010111F4801F08BF013CF7D041EA91
:1007A000060195F0000F18BF704703F00046520095
:1007B00043EB030313F4801F08BF013DF7D043EA66
:1007C0000603704794EA0C0F0CEA135518BF95EA1C
:1007D0000C0F0CD050EA410618BF52EA4306D1D1A3
:1007E00081EA030101F000414FF0000070BD50EAC2
:1007F000410606BF1046194652EA430619D094EA4C
:100800000C0F02D150EA013613D195EA0C0F05D135
:1008100052EA03361CBF104619460AD181EA030189
:1008200001F0004141F0FE4141F470014FF0000041
:1008300070BD41F0FE4141F4780170BD70B54FF0DC
:10084000FF0C4CF4E06C1CEA11541DBF1CEA13555C
:1008500094EA0C0F95EA0C0F00F0A7F8A4EB05043E
:1008600081EA030E52EA03354FEA013100F0888035
:100870004FEA03334FF0805545EA131343EA1263FE
:100880004FEA022245EA111545EA10654FEA0026B3
:100890000EF000419D4208BF964244F1FD0404F56C
:1008A000407402D25B084FEA3202B61A65EB0305C8
:1008B0005B084FEA32024FF480104FF4002CB6EB85
:1008C000020E75EB030E22BFB61A754640EA0C0005
:1008D0005B084FEA3202B6EB020E75EB030E22BF45
:1008E000B61A754640EA5C005B084FEA3202B6EB86
:1008F000020E75EB030E22BFB61A754640EA9C0045
:100900005B084FEA3202B6EB020E75EB030E22BF14
:10091000B61A754640EADC0055EA060E18D04FEAD2
:10092000051545EA16754FEA06164FEAC30343EA72
:1009300052734FEAC2025FEA1C1CC0D111F4801F3F
:100940000BD141EA00014FF000004FF0004CB6E738
:1009500011F4801F04BF01430020B4F1FD0C88BFD7
:10096000BCF5E06F3FF6AFAEB5EB030C04BFB6EBE2
:10097000020C5FEA500C50F1000041EB045170BDD5
:100980000EF0004E4EEA113114EB5C04C2BFD4EB02
:100990000C0541EA045170BD41F480114FF0000E86
:1009A000013C90E645EA060E8DE60CEA135594EA02
:1009B0000C0F08BF95EA0C0F3FF43BAF94EA0C0F05
:1009C0000AD150EA01347FF434AF95EA0C0F7FF47A
:1009D00025AF104619462CE795EA0C0F06D152EACE
:1009E00003353FF4FDAE1046194622E750EA4106B2
:1009F00018BF52EA43067FF4C5AE50EA41047FF4C3
:100A00000DAF52EA43057FF4EBAE12E74FF0FF3C27
:100A100006E000BF4FF0010C02E000BF4FF0010CF8
:100A20004DF804CD4FEA410C7FEA6C5C4FEA430C71
:100A300018BF7FEA6C5C1BD001B050EA410C0CBFC0
:100A400052EA430C91EA030F02BF90EA020F002022
:100A5000704710F1000F91EA030F58BF994208BF89
:100A600090422CBFD8176FEAE37040F00100704746
:100A70004FEA410C7FEA6C5C02D150EA013C07D19D
:100A80004FEA430C7FEA6C5CD6D152EA033CD3D0E8
:100A90005DF8040B704700BF8446104662468C46E2
:100AA0001946634600E000BF01B5FFF7B7FF002815
:100AB00048BF10F1000F01BD4DF808EDFFF7F4FF3E
:100AC0000CBF012000205DF808FB00BF4DF808EDC9
:100AD000FFF7EAFF34BF012000205DF808FB00BFEC
:100AE0004DF808EDFFF7E0FF94BF012000205DF80E
:100AF00008FB00BF4DF808EDFFF7CEFF94BF0120C3
:100B000000205DF808FB00BF4DF808EDFFF7C4FFBB
:100B100034BF012000205DF808FB00BF4FEA410C04
:100B20007FEA6C5C02D150EA013C0AD14FEA430CE7
:100B30007FEA6C5C02D152EA033C02D14FF0000024
:100B400070474FF0010070474FEA410212F5001262
:100B500015D211D56FF47873B3EB625212D94FEA04
:100B6000C12343F0004343EA505311F0004F23FAEE
:100B700002F018BF404270474FF00000704750EA43
:100B8000013005D111F0004008BF6FF00040704700
:100B90004FF00000704700BF4FEA4102B2F1E0435E
:100BA00024BFB3F5001CDCF1FE5C0DD901F0004C54
:100BB0004FEAC0024CEA5070B2F1004F40EB8300A4
:100BC00008BF20F00100704711F0804F21D113F1D0
:100BD0003872BCBF01F00040704741F480114FEA09
:100BE0005252C2F11802C2F1200C10FA0CF320FA92
:100BF00002F018BF40F001004FEAC1234FEAD323AF
:100C000003FA0CFC40EA0C0023FA02F34FEA430318
:100C1000CCE77FEA625307D150EA01331EBF4FF0A1
:100C2000FE4040F44000704701F0004040F0FE40BC
:100C300040F40000704700BF7BB972B90029BEBF05
:100C400000204FF0004106E008BF00281CBF6FF0F5
:100C500000414FF0FF3000F057B8ADF1080C6DE9DE
:100C600004CE002909DB002B1ADB1CF01DFADDF88D
:100C700004E0DDE9022304B07047404261EB41012A
:100C8000002B1BDB1CF010FADDF804E0DDE9022389
:100C900004B0404261EB4101524263EB43037047B1
:100CA000524263EB43031CF0FFF9DDF804E0DDE999
:100CB000022304B0404261EB41017047524263EBB2
:100CC00043031CF0F1F9DDF804E0DDE9022304B090
:100CD000524263EB4303704753B94AB9002908BF36
:100CE00000281CBF4FF0FF314FF0FF3000F00CB870
:100CF000ADF1080C6DE904CE1CF0D6F9DDF804E086
:100D0000DDE9022304B07047704700BF10B5054C01
:100D1000237833B9044B13B10448AFF300800123A7
:100D2000237010BD6826002000000000A0D3010839
:100D300008B5034B1BB103490348AFF3008008BD5E
:100D4000000000006C260020A0D3010800B587B089
:100D5000002300930193029303930493059319488E
:100D6000194A026043608360C360036104224261E8
:100D7000037643760122C26180F820308362C36229
:100D800080F83030436380F8383002F0A9FA90B927
:100D90000E4B009306230193002302937F220392BC
:100DA0000422049205936946064802F003FD28B91F
:100DB00007B05DF804FB01F061FAE9E701F05EFAC3
:100DC000F6E700BF84260020000004500080F03EBB
:100DD00010B5A2B0044600211D911E911F912091D3
:100DE0002191682203A819F072FF22681E4B9A42D3
:100DF00001D022B010BD4FF4804303934FF08053D5
:100E00001A930223049301220592082206920722D4
:100E10000792089309934FF080730A9303A805F093
:100E200065F9E8B9114BDA6C42F40052DA64DA6C15
:100E300002F400520192019ADA6C42F00202DA6482
:100E4000DB6C03F002030293029B01231D930B232F
:100E50001E9300231F931DA9054803F0F9FAC8E764
:100E600001F00CFADEE700BF000004500010024061
:100E70000004004808B54FF0E0231B6909F088F929
:100E8000012800D108BD01F065FDFBE7EFF3058304
:100E90002BB9064B186828B901221A6070476FF009
:100EA000050070474FF0FF30704700BFA42D0020B1
:100EB000EFF3058373B90A4B1B68012B0DD110B5F5
:100EC0000024084BDC77064B02221A6008F0A0FED3
:100ED000204610BD6FF0050070474FF0FF3070479F
:100EE000A42D002000ED00E0F0B587B000240594AB
:100EF000EFF3058404BBF8B1002A34D01568936978
:100F00002BB11E46013B372B02D9002015E01826D5
:100F1000536813F0010F3FD1546984B14FEA940C28
:100F200093682BB1D7685B2F02D9176907B184B9D1
:100F300043B14FF0FF330BB3059807B0F0BD4FF04E
:100F4000800CEDE7D368A3B91369ABB14FF0FF3361
:100F5000F1E70293019700960B466246294608F096
:100F6000E9FD0590E8E71546002318264FF0800CB0
:100F7000E1E74FF0FF33DEE70023DCE705AB019349
:100F800000960B461FFA8CF2294608F00EFE012847
:100F9000D2D000230593CFE70020CEE708B5EFF3CA
:100FA000058333B908B9002008BD08F093FF00207D
:100FB000FAE76FF00500F7E7034B0360034B0B60A4
:100FC00080231360704700BF482D0020482B00206D
:100FD000034B0360034B0B604FF480731360704747
:100FE000EC2A0020EC260020134A12F0070F1FD035
:100FF000D11D21F00701C1F53B63083313440A46B4
:101000000E480260002141601344083B23F00703AF
:101010000B48036059601960991A51601360094BBD
:101020001960094B1960094B4FF000421A60704774
:1010300040F6B833E4E700BFC02D0020B82D0020F3
:10104000B42D0020AC2D0020B02D0020A82D0020B4
:10105000164B1A461B688342FBD3516802EB010C06
:10106000844509D0416800EB010C634509D0036059
:10107000904219D01060704740680144516010469A
:10108000F0E710B40A4C2468A3420BD05B68194403
:10109000416013681B680360904200D010605DF8E7
:1010A000044B70470460F7E7704700BFB82D00207D
:1010B000B42D002038B5044608F0F6FD364B1B6809
:1010C000B3B1364B1B681C424CD1002C4CD004F100
:1010D000080214F0070F02D022F007020832002A9B
:1010E00051D02F4B1B6893424FD32E490C6804E01C
:1010F000FFF77AFFE5E721461C466368934202D278
:101100002368002BF7D1244B1B68A3423FD00D6806
:10111000083523680B6063689B1A102B10D9A01840
:1011200010F0070F08D04FF0500383F31188BFF37E
:101130006F8FBFF34F8FFEE743606260FFF788FF5A
:10114000626817490B689B1A0B60174909688B4244
:1011500001D215490B60114B1B68134363600023D8
:10116000236002E0002500E0002508F037FE15F0BE
:10117000070F0ED04FF0500383F31188BFF36F8F2A
:10118000BFF34F8FFEE70025EFE70025EDE70025D1
:10119000EBE7284638BD00BFB42D0020A82D002065
:1011A000B02D0020B82D0020AC2D002080B338B524
:1011B0000446A0F1080550F8043C164A1268134290
:1011C00008D14FF0500383F31188BFF36F8FBFF343
:1011D0004F8FFEE750F8081C41B14FF0500383F3E6
:1011E0001188BFF36F8FBFF34F8FFEE723EA02032F
:1011F00040F8043C08F058FD54F8041C064A1368F3
:101200000B4413602846FFF723FF08F0E7FD38BDC5
:10121000704700BFA82D0020B02D002050F8043CDE
:10122000024A106823EA0000704700BFA82D002082
:1012300070B505460C4608F037FD2046FFF73AFF2B
:10124000064678B175B12846FFF7E8FF08388442B2
:1012500000D3044622462946304619F018FE284697
:10126000FFF7A4FF08F0BAFD304670BD38B505465B
:101270000C4608F019FD05FB04F42046FFF71AFFA1
:101280000546034603E0002103F8011B1446621ED5
:10129000002CF8D108F0A2FD284638BD00B583B077
:1012A0001A4B9A6C42F001029A649A6C02F00102A5
:1012B0000092009A9A6C42F002029A649B6C03F0CE
:1012C00002030193019B00220521102002F068FE19
:1012D000102002F089FE00220521112002F060FE9C
:1012E000112002F081FE00220521442002F058FE68
:1012F000442002F079FE00220521452002F050FE34
:10130000452002F071FE03B05DF804FB00100240BE
:1013100008B54FF400620349D0F88C0208F084F954
:10132000012008BD8039002008B5D0F88C0207F0F4
:1013300071FA012008BD70B5D0F88C52EB6F202BEC
:1013400001D0002070BD144692B2284607F016FA6C
:10135000064636B9EB6F202B03D00120FFF71EFEA7
:10136000F7E70EB92046EDE70020EBE72DE9F8435B
:101370000D4614461F46D0F88C82002672B6D8F867
:1013800074301B685868C0F50060DFF85490C9F8E5
:10139000000062B601360120FFF700FE0E4B1B680D
:1013A000D9F80020934214D1BE42E7DB002008E0C8
:1013B0000A49C95C29540133C3F30A0306490B6087
:1013C0000130054B1B689A4201D0A042F0D3BDE822
:1013D000F8830020F5E700BF7C3900208039002029
:1013E00078390020016082808360BDF800308381FD
:1013F00000230361704710B504468189806803F0BB
:1014000083F9012804D030B92369013B236102E04C
:1014100023690133236110BD80B5D4B07E4B0193A5
:101420007E4B00937E4B7F4A7F4901200CF0BCFC31
:101430003DAC20460CF0B8FB7C4B3D937C4B3E937F
:101440007C4B3F937C4B409320460CF0C9FB50B93A
:10145000DB217A4819F05AFA05E0794819F0BEFA0A
:101460006420FFF79BFD032164200CF0B3FC0028EF
:10147000F3D142AD7349284609F0B0FD724C95E8AE
:101480000E00204600F018FC45AD7049284609F0D2
:10149000A5FD95E80E0004F12C0000F00DFC48AD10
:1014A0006B49284609F09AFD95E80E0004F15800B2
:1014B00000F002FC4BAD6749284609F08FFD95E826
:1014C0000E0004F1840000F0F7FB4EAD624928469F
:1014D00009F084FD95E80E0004F1B00000F0ECFB8B
:1014E00051AD5E49284609F079FD95E80E0004F1FA
:1014F000DC0000F0E1FB02AC5949204609F06EFD2A
:10150000584B94E8070083E807000BF049FA2F9046
:101510002FAC40AB93E803008DE803003DAE96E8A6
:101520000E0020460BF03EFAFF2120460BF01CFB7C
:1015300030AD009623460022114628460CF022FAD0
:101540002DAC2B46484A494920460CF04FFA4FF43F
:101550007A700DF065FB0BF05BF80246444B2146B8
:1015600044480CF07FFA0BF06BF80246424B2146E0
:1015700042480CF077FA09F0F9FB0246404F414B24
:10158000214638460CF0A2FA0DF1B009012401946D
:101590003D4B00931CA3D3E90023294648460CF099
:1015A000C9FA0DF1AC080194384B009318A3D3E9A4
:1015B0000023294640460CF0BDFA06AC20460BF04D
:1015C0005BFF33460322294620460BF061FF494664
:1015D00020460BF0FDFF414620460BF0F9FF0023AB
:1015E00000932B4B2B4A394620460BF0BDFF20467B
:1015F0000CF018F804A3D3E9002306A80CF05CF85B
:101600000120FFF7CBFCF5E700E1F5050000000045
:1016100080B2E60E000000006D13000837130008CA
:101620002913000811130008508800206D240008B9
:101630008D240008AD240008ED240008D8D301084B
:1016400000D4010818D40108FC70002028D4010837
:1016500038D4010848D4010858D4010868D40108D6
:1016600078D401080C7200208CE1010884D40108B0
:101670008CD401082C72002098D401082872002014
:10168000F8700020A8D40108991600085D18000819
:10169000CD160008C870002010B5084B1B69084C17
:1016A0006361084B1B69A361204609F027FB0022F8
:1016B000214605480BF038FB10BD00BFF47F002029
:1016C00004720020E07F00202C720020F8B52DED80
:1016D000028B0446534B1B78002B00F08180D4E929
:1016E0000001FFF759FAF7EE000A00EE100A1BF0AE
:1016F00017FBFFEE000A1BF0EBFAB0EE408AD4E9CC
:101700000A01FFF749FA07EE100AF0EEC80ADFED0A
:10171000467AF4EEE70AF1EE10FA6BDDB5EEC08A18
:10172000F1EE10FA63DBF7EE008A9FED400A27EE38
:10173000000A1BF0CBFA60EE287A9FED3D7A67EE47
:10174000877A9FED3C7A37EE870ADFED3B0A1BF084
:10175000E7FADFED3A0A1BF0BBFA394D85ED040AD2
:1017600085ED018A01F088FD6B69C31A00EE103A1D
:10177000B8EE400A6861DFED337A80EE270A28462A
:1017800000F032FF95ED008ADFED2F7A28EE278AF0
:10179000B5EEC08AF1EE10FAACBF012400242B4F45
:1017A0002146384600F0C7FF294E2146304600F05A
:1017B000C2FFB0EEC88ABCEEC88A18EE103A9CB2DE
:1017C0002146384600F0BEFF2146304600F0BAFF01
:1017D00095ED030A1F4801F0F7FCBDEC028BF8BD44
:1017E0001B4800F0CFFF0F4B01221A7077E7FFEE86
:1017F000008A9AE7F0EEC77ADFED176AF4EEE67A30
:10180000F1EE10FA0ADDF3EE0E7A002801DAFBEEB3
:101810000E7A9FED087A37EE870A96E79FED050A64
:1018200093E700BF84410020CDCCCC3DCDCCCC3E55
:10183000E12E65420000B4420000F0420000704218
:10184000F87E002000007A440000C842207F00207B
:10185000107F0020EC7E00200AD7233C70B524487E
:1018600000F04DF9234E33685A1C3260224C07EECB
:10187000903AF8EEE77AC4ED097A204609F03EFA8C
:101880001E4800F03CF91E4D2B685A1C2A6007EEDA
:10189000903AF8EEE77AC4ED147A04F12C0009F0DE
:1018A0002DFA184800F02BF933685A1C326007EE05
:1018B000903AF8EEE77AC4ED357A04F1B00009F019
:1018C0001DFA114800F01BF92B685A1C2A6007EE1C
:1018D000903AF8EEE77AC4ED407A04F1DC0009F0C2
:1018E0000DFA0022214609480BF01EFA70BD00BF18
:1018F000B47F002080410020FC700020887F002001
:10190000000000205C7F0020307F00202872002033
:1019100008B5044A00210448FFF7E6FA034B1860B3
:1019200008BD00BF34E2010819140008C47000208B
:101930002DE9F0438BB005AD00240594069407947F
:1019400008940994584BDA6C42F00402DA64DA6CB9
:1019500002F004020192019ADA6C42F08002DA6429
:10196000DA6C02F080020292029ADA6C42F0010212
:10197000DA64DA6C02F001020392039ADA6C42F044
:101980000202DA64DB6C03F002030493049B474E0B
:10199000224641F20801304602F0CAFE224648F2D1
:1019A000B2114FF0904002F0C3FE414F224646F282
:1019B0000421384602F0BCFE4FF4005305934FF467
:1019C0000413069307942946304602F041FD9523FF
:1019D0000593069407942946304602F039FD022308
:1019E00005934FF48819CDF818900794294630468E
:1019F00002F02EFD41F2080305934FF00108CDF8E7
:101A00001880079408942946304602F021FD48F2D8
:101A1000B2130593CDF818800794089429464FF027
:101A2000904002F015FD402605960694CDF81C80E6
:101A300029464FF0904002F00BFD46F20423059337
:101A4000CDF81880079408942946384602F000FD26
:101A50000596CDF8189007942946384602F0F8FC10
:101A60004FF480730593069407942946384602F094
:101A7000EFFC22460521072002F092FA072002F02F
:101A8000B3FA22460521172002F08AFA172002F045
:101A9000ABFA22460521282002F082FA282002F023
:101AA000A3FA0BB0BDE8F083001002400008004824
:101AB0000004004808B5844608461146CCF80000EA
:101AC000ACF804208CF80630029BCCF80830039B5D
:101AD000CCF80C30BDF81030ACF8103000238CF886
:101AE00024308CF81C30CCF82030CCF81430CCF8F2
:101AF00018300023CCF8283006F014FA08BD10B5D1
:101B000004460122018AC06802F012FE0120FFF79C
:101B100045FA0022218AE06802F00AFE23681A686A
:101B2000D368A1680B43D36010BD00000000000023
:101B300038B5044690F82430002B4CD181880068D9
:101B400005F014F86061012384F824300023237722
:101B5000A38873B923681A68136A23F00A0313620F
:101B6000A388FBB923681A68136A43F0020313625F
:101B70006BE0042B08D0082B0DD023681A68136A79
:101B800023F420431362EBE723681A68136A23F0F7
:101B9000A0031362E4E723681A68136A23F420633E
:101BA0001362DDE7042B08D0082B0DD023681A68D8
:101BB000136A43F40053136247E023681A68136AF8
:101BC00043F02003136240E023681A68136A43F469
:101BD0000073136239E08188006804F0C7FFA061D8
:101BE000237F25682A68D26A02FB03331844A06168
:101BF0006369C01A2062002384F824302377FEF73B
:101C000079FC29A3D3E90023FEF7EEFC0022244B44
:101C1000FEF7EAFC0022234BFEF710FEFEF7BCFFA6
:101C2000A062A38893B92A68136A23F00A03136297
:101C3000A3880BBB23681B681A6A1A6223681A6898
:101C4000D368A16823EA0103D36038BD042B07D011
:101C5000082B0BD02A68136A23F420431362E7E7AA
:101C60002A68136A23F0A0031362E1E72A68136A63
:101C700023F420631362DBE7042B06D0082B09D082
:101C800023681B681A6A1A62D8E723681B681A6AF5
:101C90001A62D3E723681B681A6A1A62CEE700BF8C
:101CA0000000E03F000059409CC420B07268A13F92
:101CB000037F01330377704700B585B0844601A8E0
:101CC00080E80E0000228CF814200CF1080E07C8E2
:101CD0008EE80B00074BCCF81C304FF08143CCF85A
:101CE0002030054BCCF818300023CCF8243005B058
:101CF0005DF804FB0AD7A33C920A863E134A12F011
:101D0000070F1FD0D11D21F00701C1F53B63083338
:101D100013440A460E480260002141601344083B08
:101D200023F007030B48036059601960991A51604A
:101D30001360094B1960094B1960094B4FF00042C1
:101D40001A60704740F6B833E4E700BF50720020D5
:101D500048720020447200203C7200204072002033
:101D600030720020164B1A461B688342FBD3516821
:101D700002EB010C844509D0416800EB010C63457E
:101D800009D00360904219D0106070474068014448
:101D900051601046F0E710B40A4C2468A3420BD0FF
:101DA0005B681944416013681B680360904200D06F
:101DB00010605DF8044B70470460F7E7704700BFA0
:101DC000487200204472002038B5044607F06CFFCA
:101DD000384B1B68B3B1384B1B681C4250D1002CE8
:101DE00050D004F1080214F0070F02D022F00702CD
:101DF0000832002A55D0314B1B68934253D33049E7
:101E00000C6804E0FFF77AFFE5E721461C466368AB
:101E1000934202D22368002BF7D1264B1B68A342C2
:101E200043D00D68083523680B6063689B1A102B3C
:101E300010D9A01810F0070F08D04FF0500383F30B
:101E40001188BFF36F8FBFF34F8FFEE7436062606F
:101E5000FFF788FF626819490B689B1A0B601949E4
:101E600009688B4201D217490B60134B1B6813435F
:101E7000636000232360144A13680133136002E097
:101E8000002500E0002507F0A9FF15F0070F0ED090
:101E90004FF0500383F31188BFF36F8FBFF34F8F61
:101EA000FEE70025EFE70025EDE70025EBE72846F4
:101EB00038BD00BF44720020307200204072002004
:101EC000487200203C72002038720020002834D074
:101ED00038B50446A0F1080550F8043C174A1268CA
:101EE000134208D14FF0500383F31188BFF36F8F73
:101EF000BFF34F8FFEE750F8081C41B14FF050037D
:101F000083F31188BFF36F8FBFF34F8FFEE723EA90
:101F1000020340F8043C07F0C7FE54F8041C084ACA
:101F200013680B4413602846FFF71CFF054A13682B
:101F30000133136007F052FF38BD70473072002044
:101F4000407200203472002008B51248124B036022
:101F5000124B4360002383600122C260036143612E
:101F60008361C361036202F053FC50B90021094848
:101F700003F06CF840B90021064803F0B7F830B917
:101F800008BD00F07BF9F1E700F078F9F3E700F025
:101F900075F9F5E7987E002000540040E49CD110CC
:101FA00070B5A2B0044600211D911E911F91209191
:101FB0002191682203A818F08AFE22683A4B9A42BF
:101FC00001D022B070BD4023039303A804F08EF823
:101FD00000285FD1354EF36C43F00103F364F36CDA
:101FE00003F001030193019B4FF4C0631D9312237F
:101FF0001E9300251F9503232093042321931DA9DD
:102000004FF0904002F024FAB36D43F40013B3652F
:10201000B36D03F400130293029B2548254B036024
:10202000052343608560C560802303614561856148
:10203000C5614FF44053036201F0FEFF68BB1C4BC7
:10204000E3639C621C481D4B03600523436010231F
:1020500083600023C3608022026143618361C361A6
:102060004FF44053036201F0E7FFC8B9124BA3637A
:102070009C62002205211F2001F092FF1F2001F029
:10208000B3FF00220521202001F08AFF202001F06B
:10209000ABFF96E700F0F2F89CE700F0EFF8CEE730
:1020A00000F0ECF8E2E700BF0054004000100240EE
:1020B000507E00206C040240087E00208004024014
:1020C00008B5084B9B88834204D0074B9B8883420A
:1020D00004D008BD0348FFF78EF9FAE70248FFF77E
:1020E0008AF9F6E7F47F0020E07F002008B5027F40
:1020F000184B9B799A420CD0174B9B799A4210D07F
:10210000164B9B799A4214D0154B9B799A4218D062
:1021100008BD104B1B688342EED10E48FFF708FD47
:10212000F6E70D4B1B688342EAD10B48FFF700FD31
:10213000EEE70A4B1B688342E6D10848FFF7F8FC3C
:10214000E6E7074B1B688342E2D10548FFF7F0FC46
:10215000DEE700BFB47F0020887F00205C7F002086
:10216000307F002000F1080343604FF0FF328260AF
:10217000C36003610023036070470023036170475D
:1021800043684B609A688A6051609960086103688F
:1021900001330360704730B40D68B5F1FF3F11D0D3
:1021A00000F108031C465B681A68AA42FAD9636802
:1021B0004B6099608C606160086103680133036063
:1021C00030BC70470469F2E70369416882688A603D
:1021D000416851605A68824206D0002202611A6842
:1021E000013A1A601868704782685A60F5E7000083
:1021F00010B5044602681C4B9A4211D0237F1B4A3B
:10220000927993420FD01A4A9279934213D0194A85
:102210009279934217D0184A927993421BD010BDFD
:1022200001F01EF8EAE7114A1268A242EBD10F480A
:10223000FFF73EFDF3E70E4A1268A242E7D10C48D1
:10224000FFF736FDEBE70B4A1268A242E3D10948DB
:10225000FFF72EFDE3E7084B1B68A342DFD10648DA
:10226000FFF726FDDBE700BF00440140B47F0020FC
:10227000887F00205C7F0020307F002072B6FEE760
:1022800000B597B04422002105A818F020FD0023D6
:10229000009301930293039304934FF4007002F0B0
:1022A00099FF20BB022305934FF4807208924022CD
:1022B00009920F931093012211920A22129207227F
:1022C00013921493159305A803F072F888B90F239D
:1022D00000930323019300230293039304930421A7
:1022E000684603F073FC30B917B05DF804FBFFF7E4
:1022F000C5FFFFF7C3FFFFF7C1FF00002DE98048CE
:1023000085B000F09DFFFFF7BBFFFFF711FBFEF765
:10231000C5FF08F051FC08F013F908F095F808F033
:1023200097F9FFF711FEFEF711FDDFF8308101226A
:102330004FF40051404602F0FBF93C483C4B03602F
:10234000082444604FF0904AC0F808A04FF4807B06
:10235000A0F80CB0DFF80891364FC9F800700425DA
:10236000C9F80450344EC9F80860A9F80C4000F0D0
:10237000A7F9484600F0A4F93048DFF8E890C0F823
:102380000090446000F04EFF2D4800F021F98023BA
:1023900000933346402241462A48FFF723F80123A1
:1023A00000933346022231462748FFF71BF80223E9
:1023B0000293CDF804A01023009323460C22394643
:1023C0002248FFF777FB4FF480630293CDF8048037
:1023D00000942B46224639461D48FFF76BFB0295B9
:1023E000CDF804801023009323460C224946194857
:1023F000FFF760FB4FF48053029301960095022390
:102400002A4639461448FFF755FB012259465046E3
:1024100002F08EF92146484605F0D8FBFEF736FD5E
:10242000FFF776FAFEF744FDFEE700BF207F0020AD
:1024300048860020FC85002000080048EC7E002033
:10244000F87E0020F47F0020E07F0020B47F002091
:10245000887F00205C7F0020307F0020000400483F
:10246000107F0020B08500207047000008B50549A6
:102470000A6802440A6004490A6802440A60FEF7D6
:1024800019FE08BD0C8000200880002058B110B54E
:102490000446FEF7C3FE044A13681B1A1360204665
:1024A000FEF784FE10BD70470880002038B50C464A
:1024B0000C4A13680B4413600B4A13680B441360F7
:1024C00058B10546FEF7AAFE074A13681B1A1360A7
:1024D00021462846FEF7ACFE38BD0846FEF7EAFD69
:1024E000FAE700BF0C8000200880002010B501FB37
:1024F00000F3054C22681A442260044C22681A44F6
:102500002260FEF7B3FE10BD0C8000200880002082
:102510002DE9F04107460E46144615A3D3E90023E2
:10252000FEF78AFB0D4680462060616010A3D3E968
:10253000002338463146FEF77FFBA260002A01DB0C
:10254000BDE8F081084981FB0231D317C3EB217349
:102550000133B8EB030165EBE37521606560034966
:1025600001FB0322A260EBE7A12FB84400CA9A3B0B
:1025700000CA9A3B0000000070B582B00D46684664
:1025800000240094019407F091FD009E019A4FEA07
:10259000461C4CEAD26C53019B1A6CEB060C4FEABA
:1025A0004C2C4CEAD35C5B029B1846EB0C0C4FEABC
:1025B0008C1141EA93619801C01A61EB0C018018FB
:1025C0002A4646EB0101FFF7A3FF204602B070BD8B
:1025D00010B504460023036043608360C360036159
:1025E00000F04AFE606110BDB5EEC00AF1EE10FACF
:1025F00062D910B52DED028B0446B0EE408A90ED05
:10260000010AD0ED008A30EE680AF0EE000A80EE92
:10261000080A1AF085FBF8EE000A1AF059FB94ED4F
:10262000027A70EE477AC7EE886AB0EEE66AF1EE9B
:10263000047AB4EEE76AF1EE10FA09DD16EE903A8C
:10264000002B01DAF9EE047A28EE270A37EE000AA9
:1026500084ED020A20EE080A38EE800A84ED000AB2
:10266000F7EE000A1AF05CFBFFEE000A1AF030FBEE
:1026700084ED000A94ED040AD4ED038A30EE680A72
:10268000B0EEC07AF0EE007AB4EEE77AF1EE10FA2E
:102690000FDDDFED0A7A28EE278AF0EE480A1AF0FD
:1026A0003FFBF1EE480A1AF013FB78EE808AC4ED86
:1026B000038ABDEC028B10BD704700BF0000B4421E
:1026C00010B504464168042909D008290ED10068D4
:1026D00005F0EAFD23681B680022DA6306E0006863
:1026E00005F084FB23681B6800229A636168042953
:1026F00011D008291ED1206805F046FD236818680E
:10270000026A6368013B9B00012101FA03F322EA9C
:10271000030303620EE0206805F058FA2368186886
:10272000026A6368013B9B00012101FA03F322EA7C
:102730000303036210BD08B50A468189806801F071
:10274000F7FF08BD10B4642928BF642103681B6823
:10275000DC6A4268042A09D0082A0ED104FB011160
:10276000074AA2FB01214909D96306E004FB0111D4
:10277000034AA2FB0121490999635DF8044B7047A4
:102780001F85EB5110B403681C68226A4368013B43
:102790009B00012101FA03F3134323625DF8044B0C
:1027A0007047000082B0002301930D4B1B68B3F10A
:1027B000FF3F08D04FF0500383F31188BFF36F8FB2
:1027C000BFF34F8FFEE74FF0500383F31188BFF341
:1027D0006F8FBFF34F8F019B002BFCD002B070476F
:1027E0000400002008480068006880F308884FF063
:1027F000000080F3148862B661B6BFF34F8FBFF359
:102800006F8F00DF00BF000008ED00E0DFF80C0074
:10281000016841F4700101607047000088ED00E03C
:102820004FF0807340F8043C21F0010140F8081C8F
:10283000054B40F80C3C40F8202C6FF0020340F8A8
:10284000243C4438704700BFA52700080000000062
:10285000074B19680868B0E8F04F80F30988BFF3A8
:102860006F8F4FF0000080F311887047AFF3008046
:10287000AC8500204FF0500383F31188BFF36F8FB6
:10288000BFF34F8F0B4A136801331360012B00D045
:1028900070474FF0E023D3F8043D13F0FF0FF7D05B
:1028A0004FF0500383F31188BFF36F8FBFF34F8F47
:1028B000FEE700BF04000020094B1B6843B94FF03E
:1028C000500383F31188BFF36F8FBFF34F8FFEE781
:1028D000013B034A13600BB983F31188704700BFB3
:1028E00004000020000000000000000000000000C4
:1028F000EFF30980BFF36F8F154B1A681EF0100FAE
:1029000008BF20ED108A20E9F04F10602DE9090082
:102910004FF0500080F31188BFF34F8FBFF36F8FDC
:1029200007F0FEFA4FF0000080F3118809BC196827
:102930000868B0E8F04F1EF0100F08BFB0EC108A26
:1029400080F30988BFF36F8F704700BFAFF300803B
:10295000AC85002008B54FF0500383F31188BFF316
:102960006F8FBFF34F8F07F0ADF928B14FF0E02321
:102970004FF08052C3F8042D002383F3118808BD63
:102980004FF0E022002313619361054B1B6805495A
:10299000A1FB03139B09013B53610723136170479C
:1029A00014000020D34D62104FF0E023D3F8002D27
:1029B0003D4B9A421CD04FF0E023D3F8002D3B4B07
:1029C0009A421ED030B583B0394B1A78D2B20192F8
:1029D000FF221A701B78DBB28DF803309DF80330AC
:1029E00003F05003334A1370334B07221A601BE085
:1029F0004FF0500383F31188BFF36F8FBFF34F8FF6
:102A0000FEE74FF0500383F31188BFF36F8FBFF3DE
:102A10004F8FFEE7284A1368013B13609DF803308F
:102A20005B00DBB28DF803309DF8033013F0800FAC
:102A3000F0D1214B1B68032B08D04FF0500383F3D8
:102A40001188BFF36F8FBFF34F8FFEE71B021A4A47
:102A5000136003F4E0631360019BDBB2144A13704C
:102A60004FF0E024D4F8203D43F47003C4F8203D37
:102A7000D4F8203D43F07043C4F8203DFFF780FFB9
:102A800000250E4B1D60FFF7C1FED4F8343F43F024
:102A90004043C4F8343FFFF7A5FE07F041FAFFF7C3
:102AA00081FE284603B030BD71C20F4170C20F4194
:102AB00000E400E0148000201080002004000020CA
:102AC000EFF305830F2B0ED9114A9A5C114B1B783B
:102AD0009A4208D24FF0500383F31188BFF36F8FEF
:102AE000BFF34F8FFEE74FF0E023D3F80C3D03F424
:102AF000E063094A1268934208D94FF0500383F308
:102B00001188BFF36F8FBFF34F8FFEE7704700BF91
:102B1000F0E300E0148000201080002010B504468F
:102B2000FFF7A8FEA26BE36B9A4204D00024FFF7E4
:102B3000C3FE204610BD0124F9E710B50446FFF797
:102B400099FEA36B23B90124FFF7B6FE204610BD02
:102B50000024F9E770B504461546866B026C5AB935
:102B600003681BB100200136A66370BD806807F0C2
:102B70001FFB0023A360F6E76DB9406818F087F9E2
:102B80006368226C13446360A268934219D323687C
:102B900063602846E7E7C06818F079F9E368226CBB
:102BA00051429B1AE3602268934202D2A3680B440D
:102BB000E360022D01D00020D5E726B1013E0020C0
:102BC000D1E72846CFE70020CDE70346026C6AB183
:102BD00010B50846D9681144D9609C68A14201D358
:102BE0001968D960D96818F052F910BD704738B526
:102BF0000546FFF73FFE95F8454064B201E0013C11
:102C000064B2002C0ADD6B6A43B105F1240007F0C1
:102C100007FA0028F3D007F0B5FAF0E7FF2385F8AC
:102C20004530FFF749FEFFF725FE95F8444064B2B2
:102C300001E0013C64B2002C0ADD2B6943B105F1CF
:102C4000100007F0EDF90028F3D007F09BFAF0E749
:102C5000FF2385F84430FFF72FFE38BD38B5E0B1CB
:102C60000D460446FFF706FE2368E26B216C01FB6C
:102C70000230A0600020A0636360013A02FB0133D0
:102C8000E360FF2384F8443084F84530FDB92369BC
:102C900063B9FFF711FE012038BD4FF0500383F3F5
:102CA0001188BFF36F8FBFF34F8FFEE704F1100061
:102CB00007F0B6F90028ECD04FF0E0234FF0805237
:102CC000C3F8042DBFF34F8FBFF36F8FE1E704F11B
:102CD0001000FFF747FA04F12400FFF743FAD8E7A2
:102CE00038B51D46049C0B4649B92460E063236453
:102CF00001212046FFF7B2FF84F84C5038BD226016
:102D0000F4E740B94FF0500383F31188BFF36F8F9E
:102D1000BFF34F8FFEE710B584B01C46844653B115
:102D200092B189B94FF0500383F31188BFF36F8FCD
:102D3000BFF34F8FFEE74FF0500383F31188BFF3CB
:102D40006F8FBFF34F8FFEE76AB150230393039B4E
:102D5000502B13D04FF0500383F31188BFF36F8FC4
:102D6000BFF34F8FFEE70029EFD04FF0500383F3FE
:102D70001188BFF36F8FBFF34F8FFEE7039B0123D3
:102D800084F8463000949DF818306046FFF7A8FF9D
:102D9000204604B010BDF0B585B0019288B10F4651
:102DA0001D460446B1B1022D20D1E36B012B1DD08D
:102DB0004FF0500383F31188BFF36F8FBFF34F8F32
:102DC000FEE74FF0500383F31188BFF36F8FBFF31B
:102DD0004F8FFEE7036C002BE5D04FF0500383F3D9
:102DE0001188BFF36F8FBFF34F8FFEE707F0D0F965
:102DF000064658B9019B002B48D04FF0500383F38F
:102E00001188BFF36F8FBFF34F8FFEE700263DE0C1
:102E10002A4639462046FFF79DFE636A7BB948B1D2
:102E20004FF0E0234FF08052C3F8042DBFF34F8FD3
:102E3000BFF36F8FFFF740FD012005B0F0BD04F137
:102E4000240007F0EDF80028F4D04FF0E0234FF015
:102E50008052C3F8042DBFF34F8FBFF36F8FE9E7A4
:102E6000FFF72AFD0020E8E702A807F03BF901265A
:102E700019E0002384F8443021E0002384F8453031
:102E800023E02046FFF7B3FE06F0A8FFFFF7F2FCB1
:102E9000A26BE36B9A42BBD3022DB9D0019B002BEE
:102EA000DED0002EE0D0FFF707FD06F0FDFEFFF7B5
:102EB000E1FC94F8442052B2B2F1FF3FD9D094F82B
:102EC000452052B2B2F1FF3FD7D0FFF7F5FC01A980
:102ED00002A807F013F9D8B92046FFF71FFE002813
:102EE000CFD0019904F1100007F066F82046FFF7F3
:102EF0007EFE06F073FF0028C8D14FF0E0234FF0AC
:102F00008052C3F8042DBFF34F8FBFF36F8FBDE71F
:102F10002046FFF76CFE06F061FF00208DE72DE9EB
:102F2000F84390B10F4616461C460546B1B1022C37
:102F300020D1EB6B012B1DD04FF0500383F3118890
:102F4000BFF36F8FBFF34F8FFEE74FF0500383F354
:102F50001188BFF36F8FBFF34F8FFEE7036C002B19
:102F6000E5D04FF0500383F31188BFF36F8FBFF3A9
:102F70004F8FFEE7FFF7A4FDEFF311884FF05003EA
:102F800083F31188BFF36F8FBFF34F8FAA6BEB6B87
:102F90009A4206D3022C04D0002088F31188BDE8A1
:102FA000F88395F845904FFA89F9AB6B224639467C
:102FB0002846FFF7CFFDB9F1FF3F06D009F1010325
:102FC0005BB285F845300120E7E76B6A0BB9012059
:102FD000E3E705F1240007F023F818B126B101203A
:102FE0003060DAE70120D8E70120D6E7F0B585B0F8
:102FF000019290B10F460446C1B107F0C9F80646E8
:1030000000BB019B002B5ED04FF0500383F311886F
:10301000BFF36F8FBFF34F8FFEE74FF0500383F383
:103020001188BFF36F8FBFF34F8FFEE7036C002B48
:10303000E3D04FF0500383F31188BFF36F8FBFF3DA
:103040004F8FFEE700263EE039462046FFF7BDFDE4
:10305000013DA563236923B9FFF72EFC012005B0CC
:10306000F0BD04F1100006F0DBFF0028F4D04FF0B3
:10307000E0234FF08052C3F8042DBFF34F8FBFF30E
:103080006F8FE9E7FFF718FC0020E8E702A807F0D8
:1030900029F8012621E0002384F8443029E00023A8
:1030A00084F845302BE02046FFF7A1FD06F096FEA0
:1030B00009E02046FFF79BFD06F090FE2046FFF753
:1030C0003CFD00283FD1FFF7D5FBA56B002DBBD100
:1030D000019B002BD6D0002ED8D0FFF7EDFB06F0D9
:1030E000E3FDFFF7C7FB94F844305BB2B3F1FF3F59
:1030F000D1D094F845305BB2B3F1FF3FCFD0FFF7AA
:10310000DBFB01A902A806F0F9FF0028D1D1204677
:10311000FFF713FD0028C6D0019904F1240006F042
:103120004BFF2046FFF763FD06F058FE0028CAD18A
:103130004FF0E0234FF08052C3F8042DBFF34F8FC0
:10314000BFF36F8FBFE7002089E700000023072B44
:103150000CD8074A52F833200AB10133F7E7044A82
:1031600042F8331002EBC30250607047704700BF53
:103170001880002070B504460D461646FFF77AFB0E
:1031800094F844305BB2B3F1FF3F0DD094F8453072
:103190005BB2B3F1FF3F0BD0FFF78EFBA36B5BB1CC
:1031A0002046FFF724FD70BD002384F84430EDE78E
:1031B000002384F84530EFE73246294604F1240025
:1031C00006F012FFECE7000010B50446DFED100A30
:1031D00019F0A6FDDFED0F0A19F07AFD9FED0E7ACA
:1031E000C0EE077A9FED0D7A67EE877A9FED0C7A35
:1031F00077EE877A6368082B02D084ED020A10BD4F
:1032000023681B68FCEEE77AC3ED0F7AF5E700BF91
:103210000000F04200007042000034430000FA4415
:103220000000FA4310B504464168006804F0CEFC83
:103230009FED020A2046FFF7C7FF10BD0000B44211
:1032400010B5032000F08EFE0F2005F017FA10B124
:103250000124204610BD044601F094FFF9E7000068
:10326000034B1B78034A11680B441360704700BF7F
:103270000800002058800020014B1868704700BFEC
:103280005880002010B430300B0A9B0003F00C0370
:10329000C45801F01F014FF01F0C0CFA01FC24EA86
:1032A0000C0CC2F384628A404CEA0202C2505DF800
:1032B000044B704710B414304B0E9B0003F0040312
:1032C000C458C1F304514FF0070C0CFA01FC24EA76
:1032D0000C0C8A404CEA0202C2505DF8044B704765
:1032E00030B583B000230193002800F057820446D4
:1032F0000268A24B9A4204D040F29911A048FFF70D
:10330000B3F86368B3F5803F28D0B3F5003F25D00C
:10331000B3F5403F22D00BB3B3F5802F1ED0B3F5E9
:10332000002F1BD0B3F5402F18D0B3F5801F15D058
:10333000B3F5A01F12D0B3F5C01F0FD0B3F5E01F37
:103340000CD0B3F5001F09D0B3F5101F06D0B3F5AC
:10335000201F03D0B3F5301F40F0B680A3684BB1F7
:10336000182B00F2B780874A22FA03F313F0010FFB
:1033700000F0B080E36C13B1042B40F0B180E3683F
:1033800013B1202B40F0B2802369012B00F2B480EE
:10339000637E012B00F2B680E36A4BB1B3F5806F18
:1033A00006D0B3F5006F03D0B3F5406F40F0B080A6
:1033B000A36AB3F5806F2FD0B3F5886F2CD0B3F527
:1033C000906F29D0B3F5986F26D0B3F5A06F23D0B6
:1033D000B3F5A86F20D0B3F5B06F1DD0B3F5B86FBB
:1033E0001AD0B3F5C06F17D0B3F5C86F14D0B3F5CA
:1033F000D06F11D0B3F5D86F0ED0B3F5E06F0BD00E
:10340000B3F5E86F08D0B3F5F06F05D0B3F5F86FFA
:1034100002D0002B40F0828094F83030012B00F273
:1034200083806369042B02D0082B40F08380636B98
:103430001BB1B3F5805F40F08380237E012B00F247
:10344000858094F83830012B00F28680236973B1AF
:10345000E369013B0F2B00F2858094F82030012BAB
:1034600000F2868094F82030012B00F0918094F8CF
:103470002030012B00F09780A36D002B00F09D8081
:1034800023689A6812F0005F05D09A6822F0204203
:1034900022F03F029A602268936813F0805F40F048
:1034A0009A80936823F0104323F03F0343F0805346
:1034B0009360354B1B689B09344AA2FB03239B098D
:1034C00001335B00019383E04FF4CD712C48FEF78C
:1034D000CBFF43E740F29B112948FEF7C5FF49E7C0
:1034E00040F29D112648FEF7BFFF48E740F29F11CA
:1034F0002348FEF7B9FF47E74FF4D0712048FEF7A5
:10350000B3FF45E740F2A1111D48FEF7ADFF43E7C9
:103510004FF4D1711A48FEF7A7FF49E740F2A31113
:103520001748FEF7A1FF77E74FF4D2711448FEF772
:103530009BFF76E740F2A5111148FEF795FF76E76D
:103540004FF4D3710E48FEF78FFF76E740F2A711D4
:103550000B48FEF789FF74E74FF4D4710848FEF773
:1035600083FF73E74FF4D6710548FEF77DFF74E7DC
:1035700040F2AD110248FEF777FF73E700000450F8
:10358000C0D401080001010114000020632D3E0594
:10359000636A013B072B7FF66AAF40F2B1118048A6
:1035A000FEF762FF63E7637E012B7FF465AF4FF4A4
:1035B000DB717B48FEF758FF5EE72046FDF708FC0D
:1035C0000023E36584F854305AE7019B013B0193E3
:1035D000019B002BF9D12268936813F0805F74D1AE
:1035E000A36D43F01003A365E36D43F00103E365AE
:1035F0000125936813F0040300D00123A16D11F09D
:10360000100F40F0C380002B40F0C080A36D23F466
:10361000817343F00203A365936813F0010F0BD18C
:10362000604B9B6813F0010F06D163685E498A689E
:1036300022F47C1213438B60627E636B43EA423355
:10364000E2681343A268134394F8202043EA02433C
:10365000012A3CD0A26A22B102F47072E16A0A43E4
:1036600013432168C868514A02401A43CA6022685D
:10367000936813F0080300D00123BBB9E36C217EEB
:1036800043EA813394F8301043EA4101D36823F4CC
:10369000804323F006030B43D36094F83830012BAA
:1036A0001AD02268136923F0010313612369012BE7
:1036B00063D02268136B23F00F031363A36D23F011
:1036C000030343F00103A36565E0002591E7626A07
:1036D000013A43EA4243BDE7E36B3BB11C2B34D8CC
:1036E000334A22FA03F313F0010F2ED0236C83B177
:1036F000202B0ED0402B0CD0602B0AD0802B08D072
:10370000A02B06D0C02B04D0E02B02D0B3F5807FD5
:1037100021D1636C13B1B3F5007F22D1A36C012BCF
:1037200003D040F20142934221D121680B696FF32B
:103730008A03E26B206C0243606C0243A06C02437C
:10374000134343F001030B61B0E740F266211448D4
:10375000FEF78AFECAE740F267211148FEF784FEB1
:10376000D7E74FF41A710E48FEF77EFED6E740F217
:1037700069210B48FEF778FED7E721680B6B23F031
:103780000F03E269013A13430B6397E7A36D43F01C
:103790001003A3650125284603B030BD0125FAE7D3
:1037A000C0D40108000004500003045007C0F0FF1B
:1037B00010111111F0B583B005460C46002301939A
:1037C0000268854B9A4204D040F697218348FEF761
:1037D0004BFE6368B3F58C7F66D8B3F5807F0AD261
:1037E000182B10D8062B0ED37D4A22FA03F313F0C0
:1037F000010F0DD107E0A3F580737A4A22FA03F393
:1038000013F0010F04D140F698217448FEF72CFE06
:10381000A3681BB1072B5ED8002B5FD0E3687F2B1A
:1038200002D0714A93425FD12369042B03D013B1B4
:10383000013B022B5ED861692B68DB689B0803F0B3
:10384000060340F6FF7222FA03F3994258D823691F
:10385000042B03D095F83830012B57D0E268624B27
:103860009A4200F0E7802A685B4B9A4254D040F6B7
:10387000A5215A48FEF7F8FD95F85430012B00F0C9
:103880002483012385F854302868836813F0040FDB
:1038900000F02081AB6D43F02003AB6501200023D5
:1038A00085F8543003B0F0BDB3F5067F0BD8B3F5FF
:1038B000007FA8D3A3F500734A4A22FA03F313F05A
:1038C000010FA5D19FE7B3F5407FA1D040F20632AA
:1038D00093429DD097E7B3F1004F9FD040F69921D6
:1038E0003E48FEF7C1FD99E740F69A213B48FEF7B6
:1038F000BBFD99E740F69B213848FEF7B5FD9AE7F6
:1039000040F69C213548FEF7AFFDA0E74FF42A6151
:103910003248FEF7A9FDA1E72368344A9342ABD0B1
:10392000334A9342A8D0334A9342A5D0324A9342B5
:10393000A2D002F18662103293429DD02F4A934268
:103940009AD002F186624032934295D02C4A93423B
:1039500092D002F1866202F5807293428CD0294A9D
:10396000934289D002F1042202F54012934283D09F
:1039700002F1866202F5006293423FF47DAF224A73
:1039800093423FF479AF214A93423FF475AF204A06
:1039900093423FF471AF1F4A93423FF46DAF1E4A0A
:1039A00093423FF469AF1D4A93423FF465AF1C4A0E
:1039B00093423FF461AF1B4A93423FF45DAF1A4A12
:1039C00093423FF459AF194A93423FF455AF184A16
:1039D00093427FF44CAF4FE700000450C0D401087D
:1039E000401004014110040100007F400200300437
:1039F000040060080800900C1000C010400020195E
:103A0000000180210004002A002090360040C03AC6
:103A10000080F03E00002143000052470000844B2C
:103A200001000080000052C7000084CB00005AC78C
:103A300000008CCB2368944A93423FF41DAF934A15
:103A400093423FF419AF924A93423FF415AF914A23
:103A500093423FF411AF02F18662103293423FF479
:103A60000BAF8D4A93423FF407AF02F186624032BA
:103A700093423FF401AF894A93423FF4FDAE02F115
:103A8000866202F5807293423FF4F6AE844A934216
:103A90003FF4F2AE02F1042202F5401293423FF4E9
:103AA000EBAE02F1866202F5006293423FF4E4AEAF
:103AB0007C4A93423FF4E0AE7B4A93423FF4DCAE53
:103AC0007A4A93423FF4D8AE40F6A9217848FEF7EF
:103AD000CBFCD1E622686168FFF7D4FB28688368D5
:103AE00013F0040300D00123826812F0080200D012
:103AF000012223BB1ABBA268B2F1004F53D0216848
:103B0000FFF7D8FB2A68536923F0004353616169CA
:103B10002A68D368C3F3C1035B0099402069042875
:103B20004BD02668603252F82070624B3B4006F062
:103B3000F84631430B4343F0004342F820302A68F3
:103B4000936813F0010F17D12368E068D2F8B01022
:103B5000C3F3120621EA060100F0180C564820FAB9
:103B60000CF00340C3F312030B43C2F8B030E26819
:103B7000524B9A4200F0AE802368514A134200F043
:103B8000A081504A926802F0E0704F498B4200F0E9
:103B90004A814E498B4200F06D814D498B4200F0C5
:103BA0007D8100207BE600222168FFF783FB2A68E5
:103BB000536943F000435361A9E7136E116EC1F3DB
:103BC00084612368C3F3120078BBC3F38463994212
:103BD00033D029684B6E4A6EC2F384622368C3F304
:103BE000120078BBC3F384639A4233D029688B6E8A
:103BF0008A6EC2F384622368C3F3120078BBC3F3F6
:103C000084639A4233D02968CB6ECA6EC2F3846251
:103C10002368C3F3120078BBC3F384639A428ED146
:103C2000CB6E23F00043CB6689E793FAA3F313B17D
:103C3000B3FA83F3CBE72023C9E7136E23F00043E5
:103C40001366C6E793FAA3F313B1B3FA83F3CBE792
:103C50002023C9E74B6E23F000434B66C6E793FA77
:103C6000A3F313B1B3FA83F3CBE72023C9E78B6E39
:103C700023F000438B66C6E793FAA3F313B1B3FABC
:103C800083F3CBE72023C9E7020030040400600877
:103C90000800900C1000C010400020190001802185
:103CA0000004002A002090360040C03A0080F03E18
:103CB000C0D4010800F0FF03FFFF070000007F40B1
:103CC0000000088000030450000052C7000084CBAD
:103CD0000100008028682368C3F3120626BB9A0EF1
:103CE000013202F01F02092A8CBF00220122002AA1
:103CF00052D046BB990E0131890601F0F84176BBDE
:103D00009F0E013707F01F070122BA401143AEBBD7
:103D10009B0E013303F01F0303EB43031B05194301
:103D2000A268FFF7C7FA27E793FAA3F24AB1B2FAFB
:103D300082F2013202F01F02092A8CBF0022012206
:103D4000D5E72022F5E793FAA3F131B1B1FA81F179
:103D50000131890601F0F841D1E72021F8E793FA13
:103D6000A3F24AB1B2FA82F2013202F01F024FF01E
:103D7000010C0CFA02F2C9E72022F5E793FAA3F34B
:103D800043B1B3FA83F3013303F01F0303EB43039F
:103D90001B05C4E72023F6E7CEB9990E0131890649
:103DA00001F0F841FEB99F0E013707F01F0701220D
:103DB000BA40114336BB9B0E013303F01F0303EBE4
:103DC00043031E3B1B0543F000731943A8E793FA16
:103DD000A3F131B1B1FA81F10131890601F0F84165
:103DE000E0E72021F8E793FAA3F24AB1B2FA82F2AF
:103DF000013202F01F024FF0010C0CFA02F2D8E778
:103E00002022F5E793FAA3F35BB1B3FA83F301330E
:103E100003F01F0303EB43031E3B1B0543F000733A
:103E2000D3E72023F3E712F4000F7FF4B2AE2A6841
:103E3000274B9A4201D0002031E540F40003254988
:103E40008A6822F0E07213438B60234B1B689B0946
:103E5000224AA2FB03239B09013303EB43039B008C
:103E6000019302E0019B013B0193019B002BF9D1DF
:103E7000002014E512F0807F7FF48FAE2A68144B87
:103E80009A4201D000200AE540F0807311498A6807
:103E900022F0E07213438B60002000E512F4800FE3
:103EA00011D12A680A4B9A4201D00020F7E440F46D
:103EB000800308498A6822F0E07213438B60002077
:103EC000EDE40020EBE40020E9E40220EAE400BF96
:103ED000000004500003045014000020632D3E0530
:103EE000002807DB00F01F02400901239340024A2B
:103EF00042F82030704700BF00E100E0002808DBF6
:103F00000901C9B200F1604000F5614080F800137A
:103F1000704700F00F000901C9B2014B19547047F6
:103F200014ED00E000B500F00700C0F1070CBCF193
:103F3000040F28BF4FF0040C031D062B0FD9C31E1E
:103F40004FF0FF3E0EFA0CF021EA000199400EFA04
:103F500003FE22EA0E0241EA02005DF804FB0023A0
:103F6000EEE7000010B50446C31E042B0FD80A4A22
:103F7000D36823F4E0631B041B0C240204F4E06404
:103F8000234343F0BF6343F40033D36010BDA62145
:103F90000248FEF769FAEAE700ED00E0F8D401080C
:103FA00070B506460C4615460F2A0ED80F2C11D8B0
:103FB0000B4BD8682A462146C0F30220FFF7B2FF18
:103FC00001463046FFF79AFF70BDBE210548FEF757
:103FD0004BFAEBE7BF210348FEF746FAE8E700BFDC
:103FE00000ED00E0F8D4010810B5041E03DB204604
:103FF000FFF776FF10BDD2210148FEF735FAF6E74C
:10400000F8D4010830B4446C04F01C0C012404FA08
:104010000CF4056C6C60046863608368102B05D039
:10402000036899600368DA6030BC704703689A607F
:104030000368D960F8E70000002800F0F78010B5A9
:10404000044603687A4A93422BD01432934228D014
:104050001432934225D01432934222D01432934228
:104060001FD0143293421CD01432934219D002F55F
:104070006272934215D01432934212D0143293429A
:104080000FD0143293420CD01432934209D0143220
:10409000934206D01432934203D0A5216548FEF71F
:1040A000E3F9A36823B1102B02D0B3F5804F74D18C
:1040B000E368402B01D0002B74D12369802B01D001
:1040C000002B74D163692BB1B3F5807F02D0B3F5B7
:1040D000007F71D1A3692BB1B3F5806F02D0B3F526
:1040E000006F6ED1E3690BB1202B6FD1236A43B10E
:1040F000B3F5805F05D0B3F5005F02D0B3F5405F44
:1041000069D16368072B6BD822684B4B9A426CD8F5
:104110004A4B13444A49A1FB03131B099B006364E8
:10412000484B2364022384F8253011686FF30E1185
:10413000A368E06803432069034360690343A069FF
:104140000343E0690343206A03430B431360A368FE
:10415000B3F5804F19D0226C3A4B9A4250D0394B6C
:10416000D3F8A824616C01F01C000F21814022EAE1
:104170000102C3F8A824D3F8A8246168606C00F099
:104180001C0081400A43C3F8A8240020E0630123F7
:1041900084F8253084F8240010BDA6212548FEF7B8
:1041A00063F985E7A7212348FEF75EF985E7A82193
:1041B0002048FEF759F985E7A9211E48FEF754F972
:1041C00088E7AA211B48FEF74FF98BE7AB21194876
:1041D000FEF74AF98AE7AC211648FEF745F990E761
:1041E000AE211448FEF740F98EE7174B13441449EB
:1041F000A1FB03131B099B006364144B236491E729
:10420000D3F8A820616C01F01C000F21814022EA44
:104210000102C3F8A820D3F8A8206168606C00F000
:104220001C0081400A43C3F8A820AEE70120704774
:104230000800024030D5010807040240F8FFFDBF26
:10424000CDCCCCCC00000240F8FBFDBF0004024006
:10425000F8B504460E4617461D46581E4FF6FE7327
:1042600098420FD894F82430012B3AD0012384F8D7
:10427000243094F82530012B0AD0002384F8243010
:104280000220F8BD40F2DF111748FEF7EDF8E9E72C
:10429000022384F825300023E3632268136823F0A7
:1042A000010313602B463A4631462046FFF7AAFE2B
:1042B000236B5BB12268136843F00E03136022681E
:1042C000136843F0010313600020DAE722681368E3
:1042D00023F0040313602268136843F00A03136099
:1042E000EDE70220CDE700BF30D5010890F825307A
:1042F000022B06D00423C363002380F8243001205E
:1043000070470268136823F00E0313600268136895
:1043100023F001031360436C03F01C03016C0122C2
:1043200002FA03F34B6080F82520002380F8243044
:104330001846704708B590F82530022B03D00423A7
:10434000C363012008BD0268136823F00E031360E5
:104350000268136823F001031360436C03F01C032D
:10436000016C012202FA03F34B6080F82520002340
:1043700080F82430836B13B198470020E2E70020D7
:10438000E0E738B5036C196804682568436C03F0EE
:104390001C0304229A400A4215D015F0040F12D0D3
:1043A000236813F0200F03D1236823F00403236054
:1043B000436C03F01C02016C042393404B60036BBD
:1043C00003B1984738BD02229A400A421CD015F02A
:1043D000020F19D0236813F0200F06D1236823F0B1
:1043E0000A032360012380F82530436C03F01C028C
:1043F000016C022393404B60002380F82430C36A91
:10440000002BDFD09847DDE7082202FA03F30B42C6
:10441000D8D015F0080FD5D0236823F00E03236001
:10442000436C03F01C03016C012202FA03F34B609E
:10443000C26380F82520002380F82430436B002BD2
:10444000C0D09847BEE790F825007047C06B704712
:104450002DE9F04182B080460C46B0F1904F16D065
:10446000A34B984213D003F5806398420FD003F515
:10447000806398420BD003F58063984207D003F520
:104480004063984203D0AA219A48FDF7EDFF2368C4
:104490009AB212B1B3F5803F03D3AB219548FDF733
:1044A000E3FF6368B3F5901F1FD00CD8122B06D81A
:1044B000914A22FA03F313F0010F16D111E0B3F57C
:1044C000881F12D00DE0B3F5441F0ED006D8B3F507
:1044D000041F0AD0B3F5081F03D106E0B3F5481F47
:1044E00003D0AC218348FDF7BFFF00258EE0E368D1
:1044F000032B17D8D8F80820690003238B4022EA41
:104500000302E3688B401343C8F80830D8F804204E
:1045100022EA07026368C3F30013AB401343C8F8F1
:10452000043082E0BB217348FDF79EFFE2E7DC2107
:104530007048FDF799FF81E0B8F1904F16D06C4BB1
:10454000984513D003F5806398450FD003F5806339
:1045500098450BD003F58063984507D003F5406379
:10456000984503D0E8216348FDF77EFF23690F2BB0
:1045700010D8EA08083258F8220005F0070189002F
:104580000F238B4020EA030023698B40034348F844
:10459000223065E0E9215748FDF766FFE9E704238B
:1045A00000E000238B4003430232544941F822309B
:1045B000534B9A68F34322EA0601606810F4801FA7
:1045C00001D046EA02014E4A9160D26803EA020134
:1045D000606810F4001F01D046EA0201484AD16029
:1045E000526803EA0201606810F4003F01D046EA15
:1045F0000201434A516012681340616811F4803F20
:1046000001D046EA02033E4A13600135266836FAB5
:1046100005F269D00127AF403E40F6D0636803F051
:104620000303013B012B7FF662AF636803F00303D2
:10463000032B0FD0A368022B3FF679AFD8F80C20DC
:10464000690003238B4022EA0302A3688B401343D3
:10465000C8F80C30636803F00303022B3FF46CAF1F
:10466000D8F80020690003238B4022EA0302636824
:1046700003F003038B401343C8F80030636813F45E
:10468000403FC2D01F4B1A6E42F001021A661B6EE9
:1046900003F001030193019BAA08911C174B53F8E7
:1046A000210005F0030189000F238B4020EA03005D
:1046B000B8F1904F3FF475AF0D4B98450ED003F510
:1046C000806398450CD003F5806398450AD003F5C4
:1046D000806398453FF463AF072363E7012361E7F5
:1046E00002235FE703235DE702B0BDE8F08100BF6E
:1046F0000004004868D501080F08060000000140CA
:10470000000401400010024038B504460D4621B1B6
:1047100023691D4207D0012038BD4FF4C7710348FB
:10472000FDF7A2FEF4E70020F6E700BF68D5010818
:1047300070B5054614460E4621B1012C08D86CB15F
:10474000AE6170BD4FF4D7710548FDF78DFEF4E7FB
:1047500040F2AF110248FDF787FEF0E7AE62F0E7E6
:1047600068D5010808B5054B5B69034200D108BD57
:10477000024B5861FDF7A4FCF9E700BF00040140BB
:1047800003689A6912F0020F01D000229A6203684E
:104790009A6912F0010F03D19A6942F001029A61FD
:1047A000704711F0010F09D090F8413003F0280351
:1047B000282B01D0F22302E0422300E0002311F075
:1047C000020F09D043F0440C90F8412002F0280277
:1047D000282A09D043F0F40311F4004F06D1102920
:1047E00006D143F0900305E06346F5E743F0B803D4
:1047F000202907D0402908D001680A6822EA03036B
:104800000B60704743F02003F6E743F04003F3E703
:10481000002800F0BD8010B5044603685D4A93424D
:1048200010D002F5806293420CD002F58062934270
:1048300008D002F52052934204D04FF40871564834
:10484000FDF712FEA368B3F5806F65D2E368013B04
:10485000012B67D8236913B1B3F5004F68D16369A1
:10486000FF2B6BD8A369072B6ED8E36913B1B3F59F
:10487000002F6FD1236A13B1B3F5003F70D194F8C4
:104880004130002B72D0242384F841302268136811
:1048900023F0010313606368226823F070631361DF
:1048A0002268936823F400439360E368012B63D08C
:1048B000A368226843F404439360E368022B61D049
:1048C0002268536823F4006353602268536843F0FE
:1048D000007343F4004353602268D36823F4004319
:1048E000D360236962691343A169226843EA012303
:1048F000D360E369216A22680B431360226813685E
:1049000043F00103136000206064202384F84130E9
:10491000206384F8420010BD40F221211E48FDF7BB
:10492000A3FD93E740F222211B48FDF79DFD91E78F
:1049300040F223211848FDF797FD90E74FF40971E5
:104940001548FDF791FD8DE740F225211248FDF74E
:104950008BFD8AE740F226210F48FDF785FD89E7A8
:1049600040F227210C48FDF77FFD88E784F84030AE
:104970002046FDF715FB86E7A368226843F4004351
:1049800093609AE72268536843F4006353609CE79E
:104990000120704700540040A0D5010808B5036805
:1049A00099691A68436B03B1984708BD704770470F
:1049B00010B5044603681A68002180F8421012F40A
:1049C000804F0CD01A6822F480421A6094F841306B
:1049D000292B0CD094F841302A2B18D010BD12F49A
:1049E000004FF3D01A6822F400421A60EEE7282341
:1049F00084F841302123236301212046FFF7D1FEB3
:104A0000002384F840302046FFF7D0FFE6E7282354
:104A100084F841302223236302212046FFF7C1FEA0
:104A2000002384F840302046FFF7C1FFD6E77047E7
:104A3000F8B5044690F8413003F02803282B06D03F
:104A400003680822DA61002380F84030F8BD03686B
:104A50009E69C6F300469A69120C02F0FE059A6838
:104A6000C2F30902DF6807F0FE07C168022922D1FC
:104A700085EAD21515F0060F10D1816C01318164E1
:104A8000816C0229E2D1002181640820D86184F878
:104A9000401031462046FFF7CAFFD7E74FF40041E8
:104AA000FFF77FFE002384F840303A463146204627
:104AB000FFF7BDFFCAE74FF40041FFF772FE002386
:104AC00084F840302A4631462046FFF7B0FFBDE764
:104AD0007047000010B50446174BC3620023036300
:104AE000202280F8412080F84230436311F0040F07
:104AF00013D003685A6A436A1A70436A01334362E7
:104B0000038D53B1013B0385438D9BB2013B9BB2A7
:104B10004385436C43F00403436448F20301204699
:104B2000FFF73FFE23681022DA61002384F840304B
:104B30002046FFF7CDFF10BD0000FFFF7047704714
:104B400008B590F84130602B06D00023036380F84D
:104B50004030FFF7F3FF08BD202380F841300023E9
:104B6000036380F84030FFF7EAFFF4E710B504462E
:104B700090F84130002280F842204548E06262858A
:104B8000626C0A436264283BDBB2022B19D8032112
:104B90002046FFF706FE282384F841303D4B63632F
:104BA000236BA26B1AB1112B2FD0212B2DD0E26BCE
:104BB0001AB1122B4AD0222B48D02046FFF7C0FF53
:104BC00010BD48F203012046FFF7EBFD2046FFF73A
:104BD000D7FD94F84130602B14D0202384F8413065
:104BE00023689A6912F0200F0CD09A6912F0100F06
:104BF00005D01022DA61636C43F004036364236818
:104C00002022DA6100236363CAE723681A6812F47A
:104C1000804F03D01A6822F480421A60A06BFFF71D
:104C200012FC01280ED0A36B1B4A9A63002384F860
:104C30004030A06BFFF77EFB0028C1D0A06B836BD8
:104C40009847BDE72046FFF77BFFB9E723681A685E
:104C500012F4004F03D01A6822F400421A60E06B8D
:104C6000FFF7F1FB01280ED0E36B0B4A9A63002398
:104C700084F84030E06BFFF75DFB0028A0D0E06BCC
:104C8000836B98479CE72046FFF75AFF98E700BFE1
:104C90000000FFFF854E000833500008F8B50446B9
:104CA0000D4602681668C76A90F841302021D1612C
:104CB000213B092B0CD8DFE803F005770B0B0B0B1E
:104CC0000B7E057748F20101FFF76BFD212323637B
:104CD0002268536843F4004353602268536823F00A
:104CE000FF7323F48B3323F4FF7323F0010353602A
:104CF0002046FFF745FD16F4804F63D02268136805
:104D000023F480431360A36B1BB11B685B689BB2E9
:104D1000638515F0040F11D025F0040523685A6A45
:104D2000636A1A70636A01336362238D33B1013B96
:104D30002385638D9BB2013B9BB26385638D9BB2E0
:104D40001BB1636C43F00403636415F0100F11D0C2
:104D500016F0100F0ED0638D9BB2002B57D194F834
:104D60004130282B3ED094F84130292B42D0236883
:104D70001022DA61002384F842306363636C002BF5
:104D800055D1E36A13F5803F5ED194F84130222B70
:104D90006AD0202384F841300023236384F8403014
:104DA0002046FFF703FE5EE048F20201FFF7F9FC40
:104DB000222323638CE748F20301FFF7F2FC002370
:104DC000236385E716F4004FA3D02268136823F409
:104DD00000431360E36B002B9BD01B685B689BB2A6
:104DE000638596E7B7F1007FBDD129462046FFF7DE
:104DF00071FEBFE717F5803FB9D023681022DA6152
:104E00002046FFF7BDFC2046FFF7D2FDB2E723683E
:104E10001022DA61636C43F00403636417B1B7F1E5
:104E2000807FA7D1616C2046FFF7A0FEA2E7616CEE
:104E30002046FFF79BFE94F84130282B13D12946DA
:104E40002046FFF747FE0EE02046FFF7B1FD0C4B72
:104E5000E362202384F841300023236384F8403048
:104E60002046FFF735FEF8BD202384F841300023AB
:104E7000236384F840302046FFF799FDF3E700BF35
:104E80000000FFFF10B50446C06A94F84030012BC3
:104E900000F09880012384F8403011F0200F02D0F8
:104EA00012F0200F14D111F0100F3CD012F0100F9F
:104EB00039D0638D9BB233BB94F84130282B0ED090
:104EC00094F84130292B11D023681022DA6102E0D6
:104ED0002046FFF7E3FE002084F8400010BDB0F14B
:104EE000007FEDD12046FFF7F5FDF4E710F5803F98
:104EF000EAD023681022DA612046FFF741FC204601
:104F0000FFF756FDE7E723681022DA61636C43F090
:104F10000403636410B1B0F1807FDCD1616C204682
:104F2000FFF724FED7E711F0040F1FD012F0040F93
:104F30001CD0638D9BB273B123685A6A636A1A707E
:104F4000636A01336362238D013B2385638D9BB2CA
:104F5000013B9BB26385638D9BB2002BBBD110F5E7
:104F6000803FB8D02046FFF723FDB4E711F0080FCB
:104F700002D012F0080F18D111F0020FABD012F0CE
:104F8000020FA8D0638D9BB29BB1626A236812782E
:104F90009A62636A01336362638D9BB2013B9BB289
:104FA0006385238D013B238595E72046FFF740FD70
:104FB00091E7B0F1807F01D000288CD12046FFF727
:104FC000F7FC88E7022089E710B502689369116849
:104FD00013F4807F09D011F0800F06D0446C44F0A8
:104FE000010444644FF48074D46113F4806F0AD0D8
:104FF00011F0800F07D0426C42F008024264026850
:105000004FF48064D46113F4007F0AD011F0800F54
:1050100007D0436C43F00203436403684FF400720B
:10502000DA61416C11F00B0F00D110BDFFF79EFD4E
:10503000FBE708B5806A836B0BB100229A63C36BF0
:105040000BB100229A63FFF77BFD08BD38B504461B
:105050000D460368234A93420FD002F580629342C3
:105060000BD002F58062934207D002F520529342A2
:1050700003D063211C48FDF7F7F915B1B5F5805F42
:1050800027D194F84130202B28D194F84030012BBF
:1050900026D0012384F84030242384F8413022684C
:1050A000136823F0010313602268136823F480530C
:1050B0001360226813682B4313602268136843F05F
:1050C00001031360202384F84130002084F840005D
:1050D00038BD64210448FDF7C7F9D2E70220F7E79D
:1050E0000220F5E700540040D8D5010838B5044641
:1050F0000D460368214A93420FD002F58062934225
:105100000BD002F58062934207D002F52052934201
:1051100003D091211A48FDF7A7F90F2D25D894F84F
:105120004130202B26D194F84030012B24D001238C
:1051300084F84030242384F841302268136823F037
:10514000010313602268136823F4706343EA0523A4
:1051500013602268136843F001031360202384F86E
:105160004130002084F8400038BD92210448FDF70A
:105170007BF9D4E70220F7E70220F5E7005400406E
:10518000D8D5010800B583B00D4B1A6E42F001026C
:105190001A661A6E02F001020092009A9A6D42F0AD
:1051A00080529A659B6D03F080530193019B00220E
:1051B0000F216FF00100FEF7F3FE03B05DF804FB72
:1051C00000100240024B186800F4C060704700BF36
:1051D0000070004008B5B0F5007F12D0B0F5806FC8
:1051E0002AD1214B1B6803F4C063B3F5806F39D01B
:1051F0001D4A136823F4C06343F4806313600020E6
:1052000008BD194B1B6803F4C063B3F5007F11D0D0
:10521000154A136823F4C06343F400731360134BFF
:105220001B68322202FB03F3114AA2FB03239B0CEF
:10523000013307E00020E3E7A7210E48FDF714F94A
:10524000CFE7013B084A526912F4806F01D0002B6E
:10525000F7D1054B5B6913F4806F01D10020CFE7D4
:105260000320CDE70020CBE70070004014000020B1
:1052700083DE1B4310D6010830B583B00446204BB3
:105280009B6D13F0805F0BD0FFF79CFFB0F5007FA4
:1052900017D0802C1FD82DD0702C2DD000211BE0D2
:1052A000174DAB6D43F08053AB65AB6D03F080538E
:1052B0000193019BFFF786FFAB6D23F08053AB6535
:1052C000E4E7802C03D9A02C03D9022104E00021BB
:1052D00002E0012100E003210A4A136823F00703DA
:1052E0000B431360136803F007038B4206D10020C1
:1052F00003B030BD0221EFE70121EDE70120F7E720
:105300000010024000200240254A9368D26802F053
:10531000030213F00C0309D00C2B05D0042B3BD057
:10532000082B3BD000200FE0012AF7D11C4A12685D
:1053300012F0080F0CD11A4AD2F89420C2F30322BB
:10534000184951F8220013B10C2B06D000207047E9
:10535000134A1268C2F30312F2E7114BDB6803F041
:105360000303022B16D0032B00D10F480C49CA6847
:10537000C2F302120132CB68C3F3062300FB03F32E
:10538000B3FBF2F3C868C0F3416001304000B3FBE7
:10539000F0F070470548E9E7044870470248704755
:1053A0000010024058E2010800127A000024F400C4
:1053B000002800F0F183F0B583B0044603683F2B6A
:1053C0001ED8964B9D6805F00C05DE6806F00306B6
:1053D000236813F0100F00F09680A369012B15D8F5
:1053E000E369FF2B18D8236A2BB3602B23D03ED858
:1053F000302B20D016D9402B1DD0502B16D11AE0BF
:105400004FF4D1718648FDF72FF8DAE740F2AB117F
:105410008348FDF729F8E3E74FF4D6718048FDF79C
:1054200023F8E0E7102B06D0202B04D040F2AD117A
:105430007B48FDF719F84DB30C2D25D0A369002B3F
:1054400000F0D280754A136843F001031360FDF742
:1054500013FF0746714B1B6813F0020F40F0B18039
:10546000FDF70AFFC01B0228F4D903209FE3902B0D
:10547000E1D004D9A02BDED0B02BD7D1DBE7702B45
:10548000D9D0802BD2D1D6E7012ED7D1634B1B6860
:1054900013F0020F03D0A369002B00F07F83206A72
:1054A0005E4B1B6813F0080F65D05C4B1B6803F064
:1054B000F003984266D8594B1A6842F008021A6005
:1054C0001A6822F0F002216A0A431A605A6822F42C
:1054D0007F42E16942EA01225A60002D6AD0FFF75B
:1054E00013FF4E4B9B68C3F303134E4AD35C03F088
:1054F0001F03D8404C4B18604C4B186803F0BEF8A3
:10550000002840F05483236813F0010F00F09C80C2
:1055100063682BB1B3F5803F02D0B3F5A02F77D1EC
:10552000082D00F088800C2D00F082806368B3F5B0
:10553000803F00F0B080B3F5A02F00F0B280374B71
:105540001A6822F480321A601A6822F480221A60E3
:105550006368002B00F0B280FDF78EFE07462F4BEC
:105560001B6813F4003F6FD1FDF786FEC01B642853
:10557000F5D903201BE3294BD3F894301B0903F022
:10558000F00396E7FFF778FE002840F00983234BED
:105590001A6842F008021A601A6822F0F002216AC2
:1055A0000A431A605A6822F47F42E16942EA012202
:1055B0005A6094E7206AFFF75FFE00288FD0012031
:1055C000F5E2164B1A6842F008021A601A6822F0D7
:1055D000F002216A0A431A605A6822F47F42E169A4
:1055E00042EA01225A608EE70C4A136823F0010355
:1055F0001360FDF741FE0746084B1B6813F0020FCE
:1056000081D0FDF739FEC01B0228F5D90320CEE278
:1056100040F219210248FCF727FF81E70010024001
:1056200048D6010890E20108140000200C00002078
:10563000032E7FF47BAFAB4B1B6813F4003F03D00A
:105640006368002B00F0AE82236813F0020F63D072
:10565000E36813B1B3F5807F3FD123697F2B42D834
:10566000042D48D00C2D44D0E368002B7ED09D4AF9
:10567000136843F480731360FDF7FEFD0646994BF3
:105680001B6813F4806F68D1FDF7F6FD801B0228BC
:10569000F5D903208BE2934A136843F480331360F7
:1056A00056E703F18043A3F53C331A6842F48022A5
:1056B0001A601A6842F480321A6049E7FDF7DCFD8F
:1056C0000746884B1B6813F4003FBDD0FDF7D4FD9F
:1056D000C01B6428F5D9032069E24FF41371824896
:1056E000FCF7C2FEB9E740F24D217F48FCF7BCFE53
:1056F000B6E7022EB8D17B4B1B6813F4806F03D042
:10570000E368002B00F05082764A536823F0FE4392
:10571000216943EA01635360236813F0080F56D0F0
:105720006369012B36D86369002B39D06D4AD2F8F2
:10573000943043F00103C2F89430FDF79DFD064616
:10574000684BD3F8943013F0020F40D1FDF794FD6D
:10575000801B0228F4D9032029E2624A536823F00F
:10576000FE43216943EA01635360D5E75D4A13684C
:1057700023F480731360FDF77FFD0646594B1B68C9
:1057800013F4806FC8D0FDF777FD801B0228F5D990
:1057900003200CE240F28D215348FCF765FEC2E77E
:1057A000504AD2F8943023F00103C2F89430FDF748
:1057B00063FD06464B4BD3F8943013F0020F06D02E
:1057C000FDF75AFD801B0228F4D90320EFE123687E
:1057D00013F0040F00F08D80A368012B01D9052B75
:1057E0003BD1404B9B6D13F0805F3CD13D4B9A6D9C
:1057F00042F080529A659B6D03F080530193019BA8
:1058000001263A4B1B6813F4807F2ED0A368012B2E
:105810003FD0052B45D0334BD3F8902022F0010226
:10582000C3F89020D3F8902022F00402C3F890200F
:10583000A368002B43D0FDF71FFD0746294BD3F883
:10584000903013F0020F53D1FDF716FDC01B41F24B
:1058500088339842F2D90320A9E14FF438712248E5
:10586000FCF702FEBDE70026CBE7204A136843F4AD
:1058700080731360FDF700FD07461C4B1B6813F493
:10588000807FC3D1FDF7F8FCC01B0228F5D90320A7
:105890008DE1144AD2F8903043F00103C2F8903001
:1058A000C6E7104BD3F8902042F00402C3F89020D2
:1058B000D3F8902042F00102C3F89020B8E7FDF73A
:1058C000DBFC0746074BD3F8903013F0020F0FD0E4
:1058D000FDF7D2FCC01B41F288339842F2D9032075
:1058E00065E100BF0010024048D60108007000408A
:1058F000FEB9236813F0200F3ED0636A012B1ED837
:10590000636A13B3AC4AD2F8983043F00103C2F88B
:105910009830FDF7B1FC0646A74BD3F8983013F04A
:10592000020F29D1FDF7A8FC801B0228F4D903201F
:105930003DE1A14A936D23F080539365D9E740F28E
:1059400045319E48FCF790FDDAE79B4AD2F8983043
:1059500023F00103C2F89830FDF78EFC0646964B03
:10596000D3F8983013F0020F06D0FDF785FC801BAA
:105970000228F4D903201AE1A36A022B1DD8A36AD6
:10598000002B00F01381022B1DD00C2D00F01C8188
:10599000894A136823F080731360FDF76DFC044699
:1059A000854B1B6813F0007F00F0EF80FDF764FC6F
:1059B000001B0228F4D90320F9E040F26E317F4841
:1059C000FCF752FDDBE7E36A032B2ED8236B013B88
:1059D000072B30D8636B083B4E2B32D8A36B023BAE
:1059E0001D2B34D8E26B082A37D84FF4AA73D34062
:1059F00013F0010F31D0226C082A34D84FF4AA7367
:105A0000D34013F0010F2ED06B4BDB6803F0030182
:105A1000E26A91422DD00C2D00F0CB80664B1B68C2
:105A200013F0806F4FD00120C1E040F2763163481F
:105A3000FCF71AFDCAE740F277316048FCF714FD25
:105A4000C8E74FF45E715D48FCF70EFDC6E740F213
:105A50007A315A48FCF708FDC4E74FF45F715748A4
:105A6000FCF702FDC7E740F27D315448FCF7FCFC2F
:105A7000CAE703F07002216B0139B2EB011FCAD1F2
:105A800003F4FE42616BB2EB012FC4D103F0784204
:105A9000A16BB2EBC16FBED103F4C001E26B52083F
:105AA000013AB1EB425FB6D103F0C063226C5208F9
:105AB000013AB3EB426FAED13F4B1B6813F0007F4E
:105AC00049D0002073E03C4A136823F080731360D0
:105AD000FDF7D2FB0546384B1B6813F0007F06D05C
